{
  "contractName": "eVote",
  "abi": [
    {
      "inputs": [],
      "payable": false,
      "stateMutability": "nonpayable",
      "type": "constructor"
    },
    {
      "anonymous": false,
      "inputs": [
        {
          "indexed": true,
          "internalType": "uint256",
          "name": "_voteIndex",
          "type": "uint256"
        }
      ],
      "name": "votedEvent",
      "type": "event"
    },
    {
      "constant": true,
      "inputs": [
        {
          "internalType": "uint256",
          "name": "",
          "type": "uint256"
        }
      ],
      "name": "candidates",
      "outputs": [
        {
          "internalType": "uint256",
          "name": "id",
          "type": "uint256"
        },
        {
          "internalType": "bytes32",
          "name": "name",
          "type": "bytes32"
        },
        {
          "internalType": "uint256",
          "name": "totalVotes",
          "type": "uint256"
        }
      ],
      "payable": false,
      "stateMutability": "view",
      "type": "function"
    },
    {
      "constant": true,
      "inputs": [],
      "name": "chairman",
      "outputs": [
        {
          "internalType": "address payable",
          "name": "",
          "type": "address"
        }
      ],
      "payable": false,
      "stateMutability": "view",
      "type": "function"
    },
    {
      "constant": true,
      "inputs": [],
      "name": "totalCandidates",
      "outputs": [
        {
          "internalType": "uint256",
          "name": "",
          "type": "uint256"
        }
      ],
      "payable": false,
      "stateMutability": "view",
      "type": "function"
    },
    {
      "constant": true,
      "inputs": [],
      "name": "totalVoters",
      "outputs": [
        {
          "internalType": "uint256",
          "name": "",
          "type": "uint256"
        }
      ],
      "payable": false,
      "stateMutability": "view",
      "type": "function"
    },
    {
      "constant": true,
      "inputs": [
        {
          "internalType": "address",
          "name": "",
          "type": "address"
        }
      ],
      "name": "voters",
      "outputs": [
        {
          "internalType": "bytes32",
          "name": "name",
          "type": "bytes32"
        },
        {
          "internalType": "bool",
          "name": "hasVoted",
          "type": "bool"
        },
        {
          "internalType": "uint256",
          "name": "vote",
          "type": "uint256"
        }
      ],
      "payable": false,
      "stateMutability": "view",
      "type": "function"
    },
    {
      "constant": false,
      "inputs": [
        {
          "internalType": "uint256",
          "name": "_voteIndex",
          "type": "uint256"
        }
      ],
      "name": "vote",
      "outputs": [],
      "payable": false,
      "stateMutability": "nonpayable",
      "type": "function"
    }
  ],
  "bytecode": "0x60806040526000600355600060045534801561001a57600080fd5b50336000806101000a81548173ffffffffffffffffffffffffffffffffffffffff021916908373ffffffffffffffffffffffffffffffffffffffff16021790555061008a7f46697273742043616e64696461746500000000000000000000000000000000006100ed60201b60201c565b6100b97f5365636f6e642043616e646964617465000000000000000000000000000000006100ed60201b60201c565b6100e87f54686972642043616e64696461746500000000000000000000000000000000006100ed60201b60201c565b6101ae565b6000809054906101000a900473ffffffffffffffffffffffffffffffffffffffff1673ffffffffffffffffffffffffffffffffffffffff163373ffffffffffffffffffffffffffffffffffffffff161461014657600080fd5b600160046000828254019250508190555060405180606001604052806004548152602001828152602001600081525060026000600454815260200190815260200160002060008201518160000155602082015181600101556040820151816002015590505050565b610418806101bd6000396000f3fe608060405234801561001057600080fd5b50600436106100625760003560e01c80630121b93f146100675780633477ee2e146100955780633866965c146100e55780635f5300ff1461010357806387f7b97514610121578063a3ec138d1461016b575b600080fd5b6100936004803603602081101561007d57600080fd5b81019080803590602001909291905050506101d5565b005b6100c1600480360360208110156100ab57600080fd5b8101908080359060200190929190505050610351565b60405180848152602001838152602001828152602001935050505060405180910390f35b6100ed61037b565b6040518082815260200191505060405180910390f35b61010b610381565b6040518082815260200191505060405180910390f35b610129610387565b604051808273ffffffffffffffffffffffffffffffffffffffff1673ffffffffffffffffffffffffffffffffffffffff16815260200191505060405180910390f35b6101ad6004803603602081101561018157600080fd5b81019080803573ffffffffffffffffffffffffffffffffffffffff1690602001909291905050506103ac565b6040518084815260200183151515158152602001828152602001935050505060405180910390f35b600160003373ffffffffffffffffffffffffffffffffffffffff1673ffffffffffffffffffffffffffffffffffffffff16815260200190815260200160002060010160009054906101000a900460ff161561022f57600080fd5b60008111801561024157506004548111155b61024a57600080fd5b80600160003373ffffffffffffffffffffffffffffffffffffffff1673ffffffffffffffffffffffffffffffffffffffff1681526020019081526020016000206002018190555060018060003373ffffffffffffffffffffffffffffffffffffffff1673ffffffffffffffffffffffffffffffffffffffff16815260200190815260200160002060010160006101000a81548160ff021916908315150217905550600160026000838152602001908152602001600020600201600082825401925050819055506001600360008282540192505081905550807ffff3c900d938d21d0990d786e819f29b8d05c1ef587b462b939609625b684b1660405160405180910390a250565b60026020528060005260406000206000915090508060000154908060010154908060020154905083565b60045481565b60035481565b6000809054906101000a900473ffffffffffffffffffffffffffffffffffffffff1681565b60016020528060005260406000206000915090508060000154908060010160009054906101000a900460ff1690806002015490508356fea265627a7a72315820186bdddb99c2b811511694933518dc7781b3caabd3ae29f32aaa3920099257e464736f6c63430005100032",
  "source": "\r\n// File: contracts/eVote.sol\r\n// SPDX-License-Identifier: MIT\r\npragma solidity ^0.5.16;\r\n\r\ncontract eVote {\r\n\r\n    struct Voter {\r\n        bytes32 name;\r\n        bool hasVoted;\r\n        uint vote; \r\n    }\r\n    struct Candidate {\r\n        uint id;\r\n        bytes32 name;\r\n        uint totalVotes;\r\n    }\r\n    \r\n    address payable public chairman;\r\n    \r\n    mapping(address => Voter) public voters;\r\n    mapping(uint => Candidate) public candidates;\r\n    \r\n    uint public totalVoters = 0;\r\n    uint public totalCandidates = 0;\r\n    \r\n    constructor () public {\r\n        chairman = (msg.sender);\r\n        addCandidate(\"First Candidate\");\r\n        addCandidate(\"Second Candidate\");\r\n        addCandidate(\"Third Candidate\");\r\n    }\r\n\t\r\n\tevent votedEvent (\r\n        uint indexed _voteIndex\r\n    );\r\n\t\r\n    \r\n    function addCandidate(bytes32 _name) private {\r\n        require(msg.sender == chairman);\r\n        totalCandidates+= 1;\r\n        candidates[totalCandidates] = Candidate(totalCandidates,_name, 0);\r\n    }\r\n\r\n    function vote(uint _voteIndex) public {\r\n        require(!voters[msg.sender].hasVoted);\r\n\t\trequire(_voteIndex > 0 && _voteIndex <= totalCandidates);       \r\n        voters[msg.sender].vote = _voteIndex;\r\n        voters[msg.sender].hasVoted = true;\r\n        \r\n        candidates[_voteIndex].totalVotes += 1;\r\n        totalVoters += 1;\r\n\t\t\r\n\t\temit votedEvent(_voteIndex);\r\n    }\r\n\r\n}",
  "sourcePath": "C:\\Users\\cemal\\OneDrive\\Sənədlər\\GitHub\\Thesis\\contracts\\eVote.sol",
  "compiler": {
    "name": "solc",
    "version": "0.5.16+commit.9c3226ce.Emscripten.clang"
  },
  "schemaVersion": "3.4.3",
  "updatedAt": "2021-09-27T10:35:00.020Z",
  "devdoc": {
    "methods": {}
  },
  "userdoc": {
    "methods": {}
  }
}