{
  "contractName": "eVote",
  "abi": [
    {
      "inputs": [],
      "payable": false,
      "stateMutability": "nonpayable",
      "type": "constructor"
    },
    {
      "anonymous": false,
      "inputs": [
        {
          "indexed": true,
          "internalType": "uint256",
          "name": "_voteIndex",
          "type": "uint256"
        }
      ],
      "name": "votedEvent",
      "type": "event"
    },
    {
      "constant": true,
      "inputs": [
        {
          "internalType": "uint256",
          "name": "",
          "type": "uint256"
        }
      ],
      "name": "candidates",
      "outputs": [
        {
          "internalType": "uint256",
          "name": "id",
          "type": "uint256"
        },
        {
          "internalType": "bytes32",
          "name": "name",
          "type": "bytes32"
        },
        {
          "internalType": "uint256",
          "name": "totalVotes",
          "type": "uint256"
        }
      ],
      "payable": false,
      "stateMutability": "view",
      "type": "function"
    },
    {
      "constant": true,
      "inputs": [],
      "name": "chairman",
      "outputs": [
        {
          "internalType": "address payable",
          "name": "",
          "type": "address"
        }
      ],
      "payable": false,
      "stateMutability": "view",
      "type": "function"
    },
    {
      "constant": true,
      "inputs": [],
      "name": "totalCandidates",
      "outputs": [
        {
          "internalType": "uint256",
          "name": "",
          "type": "uint256"
        }
      ],
      "payable": false,
      "stateMutability": "view",
      "type": "function"
    },
    {
      "constant": true,
      "inputs": [],
      "name": "totalVoters",
      "outputs": [
        {
          "internalType": "uint256",
          "name": "",
          "type": "uint256"
        }
      ],
      "payable": false,
      "stateMutability": "view",
      "type": "function"
    },
    {
      "constant": true,
      "inputs": [
        {
          "internalType": "uint256",
          "name": "",
          "type": "uint256"
        }
      ],
      "name": "voterList",
      "outputs": [
        {
          "internalType": "address",
          "name": "",
          "type": "address"
        }
      ],
      "payable": false,
      "stateMutability": "view",
      "type": "function"
    },
    {
      "constant": true,
      "inputs": [
        {
          "internalType": "address",
          "name": "",
          "type": "address"
        }
      ],
      "name": "voters",
      "outputs": [
        {
          "internalType": "bool",
          "name": "hasVoted",
          "type": "bool"
        },
        {
          "internalType": "uint256",
          "name": "vote",
          "type": "uint256"
        },
        {
          "internalType": "bool",
          "name": "isRegistered",
          "type": "bool"
        },
        {
          "internalType": "bool",
          "name": "isLoggedIn",
          "type": "bool"
        },
        {
          "internalType": "bool",
          "name": "allowedToVote",
          "type": "bool"
        }
      ],
      "payable": false,
      "stateMutability": "view",
      "type": "function"
    },
    {
      "constant": false,
      "inputs": [
        {
          "internalType": "string",
          "name": "_voter",
          "type": "string"
        }
      ],
      "name": "voterAuth",
      "outputs": [
        {
          "internalType": "bool",
          "name": "",
          "type": "bool"
        }
      ],
      "payable": false,
      "stateMutability": "nonpayable",
      "type": "function"
    },
    {
      "constant": false,
      "inputs": [
        {
          "internalType": "string",
          "name": "_email",
          "type": "string"
        },
        {
          "internalType": "string",
          "name": "_password",
          "type": "string"
        }
      ],
      "name": "loginVoter",
      "outputs": [
        {
          "internalType": "bool",
          "name": "",
          "type": "bool"
        }
      ],
      "payable": false,
      "stateMutability": "nonpayable",
      "type": "function"
    },
    {
      "constant": false,
      "inputs": [
        {
          "internalType": "string",
          "name": "_email",
          "type": "string"
        },
        {
          "internalType": "string",
          "name": "_password",
          "type": "string"
        },
        {
          "internalType": "string",
          "name": "_age",
          "type": "string"
        }
      ],
      "name": "registerVoter",
      "outputs": [
        {
          "internalType": "bool",
          "name": "",
          "type": "bool"
        }
      ],
      "payable": false,
      "stateMutability": "nonpayable",
      "type": "function"
    },
    {
      "constant": true,
      "inputs": [],
      "name": "checkIsUserLogged",
      "outputs": [
        {
          "internalType": "bool",
          "name": "",
          "type": "bool"
        }
      ],
      "payable": false,
      "stateMutability": "view",
      "type": "function"
    },
    {
      "constant": false,
      "inputs": [],
      "name": "logout",
      "outputs": [],
      "payable": false,
      "stateMutability": "nonpayable",
      "type": "function"
    },
    {
      "constant": false,
      "inputs": [
        {
          "internalType": "uint256",
          "name": "_voteIndex",
          "type": "uint256"
        }
      ],
      "name": "vote",
      "outputs": [],
      "payable": false,
      "stateMutability": "nonpayable",
      "type": "function"
    }
  ],
  "bytecode": "0x60806040526000600555600060065534801561001a57600080fd5b50336000806101000a81548173ffffffffffffffffffffffffffffffffffffffff021916908373ffffffffffffffffffffffffffffffffffffffff16021790555061008a7f46697273742043616e64696461746500000000000000000000000000000000006100ed60201b60201c565b6100b97f5365636f6e642043616e646964617465000000000000000000000000000000006100ed60201b60201c565b6100e87f54686972642043616e64696461746500000000000000000000000000000000006100ed60201b60201c565b6101ae565b6000809054906101000a900473ffffffffffffffffffffffffffffffffffffffff1673ffffffffffffffffffffffffffffffffffffffff163373ffffffffffffffffffffffffffffffffffffffff161461014657600080fd5b600160066000828254019250508190555060405180606001604052806006548152602001828152602001600081525060046000600654815260200190815260200160002060008201518160000155602082015181600101556040820151816002015590505050565b6113d3806101bd6000396000f3fe608060405234801561001057600080fd5b50600436106100b45760003560e01c806350e2e8af1161007157806350e2e8af146104ca5780635f5300ff1461053857806387f7b97514610556578063a3ec138d146105a0578063ad12659c14610624578063e280ab3c14610646576100b4565b80630121b93f146100b957806307439509146100e75780631f3c99c3146102e85780633477ee2e146102f25780633866965c14610342578063400af02a14610360575b600080fd5b6100e5600480360360208110156100cf57600080fd5b8101908080359060200190929190505050610719565b005b6102ce600480360360608110156100fd57600080fd5b810190808035906020019064010000000081111561011a57600080fd5b82018360208201111561012c57600080fd5b8035906020019184600183028401116401000000008311171561014e57600080fd5b91908080601f016020809104026020016040519081016040528093929190818152602001838380828437600081840152601f19601f820116905080830192505050505050509192919290803590602001906401000000008111156101b157600080fd5b8201836020820111156101c357600080fd5b803590602001918460018302840111640100000000831117156101e557600080fd5b91908080601f016020809104026020016040519081016040528093929190818152602001838380828437600081840152601f19601f8201169050808301925050505050505091929192908035906020019064010000000081111561024857600080fd5b82018360208201111561025a57600080fd5b8035906020019184600183028401116401000000008311171561027c57600080fd5b91908080601f016020809104026020016040519081016040528093929190818152602001838380828437600081840152601f19601f8201169050808301925050505050505091929192905050506108dc565b604051808215151515815260200191505060405180910390f35b6102f0610ab6565b005b61031e6004803603602081101561030857600080fd5b8101908080359060200190929190505050610b13565b60405180848152602001838152602001828152602001935050505060405180910390f35b61034a610b3d565b6040518082815260200191505060405180910390f35b6104b06004803603604081101561037657600080fd5b810190808035906020019064010000000081111561039357600080fd5b8201836020820111156103a557600080fd5b803590602001918460018302840111640100000000831117156103c757600080fd5b91908080601f016020809104026020016040519081016040528093929190818152602001838380828437600081840152601f19601f8201169050808301925050505050505091929192908035906020019064010000000081111561042a57600080fd5b82018360208201111561043c57600080fd5b8035906020019184600183028401116401000000008311171561045e57600080fd5b91908080601f016020809104026020016040519081016040528093929190818152602001838380828437600081840152601f19601f820116905080830192505050505050509192919290505050610b43565b604051808215151515815260200191505060405180910390f35b6104f6600480360360208110156104e057600080fd5b8101908080359060200190929190505050610e6b565b604051808273ffffffffffffffffffffffffffffffffffffffff1673ffffffffffffffffffffffffffffffffffffffff16815260200191505060405180910390f35b610540610e9e565b6040518082815260200191505060405180910390f35b61055e610ea4565b604051808273ffffffffffffffffffffffffffffffffffffffff1673ffffffffffffffffffffffffffffffffffffffff16815260200191505060405180910390f35b6105e2600480360360208110156105b657600080fd5b81019080803573ffffffffffffffffffffffffffffffffffffffff169060200190929190505050610ec9565b60405180861515151581526020018581526020018415151515815260200183151515158152602001821515151581526020019550505050505060405180910390f35b61062c610f33565b604051808215151515815260200191505060405180910390f35b6106ff6004803603602081101561065c57600080fd5b810190808035906020019064010000000081111561067957600080fd5b82018360208201111561068b57600080fd5b803590602001918460018302840111640100000000831117156106ad57600080fd5b91908080601f016020809104026020016040519081016040528093929190818152602001838380828437600081840152601f19601f820116905080830192505050505050509192919290505050610f8a565b604051808215151515815260200191505060405180910390f35b600160003373ffffffffffffffffffffffffffffffffffffffff1673ffffffffffffffffffffffffffffffffffffffff16815260200190815260200160002060020160009054906101000a900460ff1661077257600080fd5b600160003373ffffffffffffffffffffffffffffffffffffffff1673ffffffffffffffffffffffffffffffffffffffff16815260200190815260200160002060020160029054906101000a900460ff166107cb57600080fd5b6000811180156107dd57506006548111155b6107e657600080fd5b80600160003373ffffffffffffffffffffffffffffffffffffffff1673ffffffffffffffffffffffffffffffffffffffff1681526020019081526020016000206001018190555060018060003373ffffffffffffffffffffffffffffffffffffffff1673ffffffffffffffffffffffffffffffffffffffff16815260200190815260200160002060000160006101000a81548160ff02191690831515021790555060016004600083815260200190815260200160002060020160008282540192505081905550807ffff3c900d938d21d0990d786e819f29b8d05c1ef587b462b939609625b684b1660405160405180910390a250565b6000600160003373ffffffffffffffffffffffffffffffffffffffff1673ffffffffffffffffffffffffffffffffffffffff16815260200190815260200160002060020160009054906101000a900460ff161561093857600080fd5b60016005600082825401925050819055503360036000600554815260200190815260200160002060006101000a81548173ffffffffffffffffffffffffffffffffffffffff021916908373ffffffffffffffffffffffffffffffffffffffff16021790555060018060003373ffffffffffffffffffffffffffffffffffffffff1673ffffffffffffffffffffffffffffffffffffffff16815260200190815260200160002060020160006101000a81548160ff021916908315150217905550604051806060016040528085815260200184815260200183815250600260003373ffffffffffffffffffffffffffffffffffffffff1673ffffffffffffffffffffffffffffffffffffffff1681526020019081526020016000206000820151816000019080519060200190610a6d9291906112f9565b506020820151816001019080519060200190610a8a9291906112f9565b506040820151816002019080519060200190610aa79291906112f9565b50905050600190509392505050565b6000600160003373ffffffffffffffffffffffffffffffffffffffff1673ffffffffffffffffffffffffffffffffffffffff16815260200190815260200160002060020160016101000a81548160ff021916908315150217905550565b60046020528060005260406000206000915090508060000154908060010154908060020154905083565b60065481565b6000600160003373ffffffffffffffffffffffffffffffffffffffff1673ffffffffffffffffffffffffffffffffffffffff16815260200190815260200160002060020160009054906101000a900460ff16610b9e57600080fd5b826040516020018082805190602001908083835b60208310610bd55780518252602082019150602081019050602083039250610bb2565b6001836020036101000a03801982511681845116808217855250505050505090500191505060405160208183030381529060405280519060200120600260003373ffffffffffffffffffffffffffffffffffffffff1673ffffffffffffffffffffffffffffffffffffffff1681526020019081526020016000206000016040516020018082805460018160011615610100020316600290048015610cb05780601f10610c8e576101008083540402835291820191610cb0565b820191906000526020600020905b815481529060010190602001808311610c9c575b505091505060405160208183030381529060405280519060200120148015610e025750816040516020018082805190602001908083835b60208310610d0a5780518252602082019150602081019050602083039250610ce7565b6001836020036101000a03801982511681845116808217855250505050505090500191505060405160208183030381529060405280519060200120600260003373ffffffffffffffffffffffffffffffffffffffff1673ffffffffffffffffffffffffffffffffffffffff1681526020019081526020016000206001016040516020018082805460018160011615610100020316600290048015610de55780601f10610dc3576101008083540402835291820191610de5565b820191906000526020600020905b815481529060010190602001808311610dd1575b505091505060405160208183030381529060405280519060200120145b610e0b57600080fd5b60018060003373ffffffffffffffffffffffffffffffffffffffff1673ffffffffffffffffffffffffffffffffffffffff16815260200190815260200160002060020160016101000a81548160ff02191690831515021790555092915050565b60036020528060005260406000206000915054906101000a900473ffffffffffffffffffffffffffffffffffffffff1681565b60055481565b6000809054906101000a900473ffffffffffffffffffffffffffffffffffffffff1681565b60016020528060005260406000206000915090508060000160009054906101000a900460ff16908060010154908060020160009054906101000a900460ff16908060020160019054906101000a900460ff16908060020160029054906101000a900460ff16905085565b6000600160003373ffffffffffffffffffffffffffffffffffffffff1673ffffffffffffffffffffffffffffffffffffffff16815260200190815260200160002060020160019054906101000a900460ff16905090565b600080610f96836110a0565b9050600160008273ffffffffffffffffffffffffffffffffffffffff1673ffffffffffffffffffffffffffffffffffffffff16815260200190815260200160002060020160009054906101000a900460ff16156110485760018060008373ffffffffffffffffffffffffffffffffffffffff1673ffffffffffffffffffffffffffffffffffffffff16815260200190815260200160002060020160026101000a81548160ff0219169083151502179055505b600160008273ffffffffffffffffffffffffffffffffffffffff1673ffffffffffffffffffffffffffffffffffffffff16815260200190815260200160002060020160029054906101000a900460ff16915050919050565b6000606082905060008090506000806000600290505b602a8110156112ec57610100840293508481815181106110d257fe5b602001015160f81c60f81b60f81c60ff1692508460018201815181106110f457fe5b602001015160f81c60f81b60f81c60ff16915060618373ffffffffffffffffffffffffffffffffffffffff1610158015611145575060668373ffffffffffffffffffffffffffffffffffffffff1611155b15611155576057830392506111ef565b60418373ffffffffffffffffffffffffffffffffffffffff1610158015611193575060468373ffffffffffffffffffffffffffffffffffffffff1611155b156111a3576037830392506111ee565b60308373ffffffffffffffffffffffffffffffffffffffff16101580156111e1575060398373ffffffffffffffffffffffffffffffffffffffff1611155b156111ed576030830392505b5b5b60618273ffffffffffffffffffffffffffffffffffffffff161015801561122d575060668273ffffffffffffffffffffffffffffffffffffffff1611155b1561123d576057820391506112d7565b60418273ffffffffffffffffffffffffffffffffffffffff161015801561127b575060468273ffffffffffffffffffffffffffffffffffffffff1611155b1561128b576037820391506112d6565b60308273ffffffffffffffffffffffffffffffffffffffff16101580156112c9575060398273ffffffffffffffffffffffffffffffffffffffff1611155b156112d5576030820391505b5b5b816010840201840193506002810190506110b6565b5082945050505050919050565b828054600181600116156101000203166002900490600052602060002090601f016020900481019282601f1061133a57805160ff1916838001178555611368565b82800160010185558215611368579182015b8281111561136757825182559160200191906001019061134c565b5b5090506113759190611379565b5090565b61139b91905b8082111561139757600081600090555060010161137f565b5090565b9056fea265627a7a7231582033dc3ac9abbe9315a903d9fd7f68f386b322c87eec425753e9d5c7b28378d84764736f6c63430005100032",
  "source": "// File: contracts/eVote.sol\r\n// SPDX-License-Identifier: MIT\r\npragma solidity ^0.5.16;\r\n\r\ncontract eVote {\r\n    struct Voter {\r\n        bool hasVoted;\r\n        uint vote;\r\n\t\tbool isRegistered;\r\n\t\tbool isLoggedIn;\r\n\t\tbool allowedToVote;\r\n    }\r\n\tstruct VoterDetails{\r\n\t\tstring email;\r\n\t\tstring pass;\r\n\t\tstring age;\r\n\t\r\n\t}\r\n    struct Candidate {\r\n        uint id;\r\n        bytes32 name;\r\n        uint totalVotes;\r\n    }\r\n    \r\n    address payable public chairman;\r\n\t\r\n    mapping(address => Voter) public voters;\r\n\tmapping(address => VoterDetails) voterdetails;\r\n\tmapping(uint => address) public voterList;\r\n    mapping(uint => Candidate) public candidates;\r\n    \r\n    uint public totalVoters = 0;\r\n    uint public totalCandidates = 0;\r\n    \r\n    constructor () public {\r\n        chairman = (msg.sender);\r\n        addCandidate(\"First Candidate\");\r\n        addCandidate(\"Second Candidate\");\r\n        addCandidate(\"Third Candidate\");\r\n    }\r\n\t\r\n\tfunction voterAuth(string memory _voter) public returns (bool) {\r\n\t\taddress _voter_addr = parseAddr(_voter);\r\n\t\tif(voters[_voter_addr].isRegistered){\r\n\t\t\tvoters[_voter_addr].allowedToVote = true;\r\n\t\t}\r\n\t\treturn voters[_voter_addr].allowedToVote;\r\n    }\r\n\t\r\n\t\r\n\tfunction parseAddr(string memory _a) internal pure returns (address _parsedAddress) {\r\n\t\tbytes memory tmp = bytes(_a);\r\n\t\tuint160 iaddr = 0;\r\n\t\tuint160 b1;\r\n\t\tuint160 b2;\r\n\t\tfor (uint i = 2; i < 2 + 2 * 20; i += 2) {\r\n\t\t\tiaddr *= 256;\r\n\t\t\tb1 = uint160(uint8(tmp[i]));\r\n\t\t\tb2 = uint160(uint8(tmp[i + 1]));\r\n\t\t\tif ((b1 >= 97) && (b1 <= 102)) {\r\n\t\t\t\tb1 -= 87;\r\n\t\t\t} else if ((b1 >= 65) && (b1 <= 70)) {\r\n\t\t\t\tb1 -= 55;\r\n\t\t\t} else if ((b1 >= 48) && (b1 <= 57)) {\r\n\t\t\t\tb1 -= 48;\r\n\t\t\t}\r\n\t\t\tif ((b2 >= 97) && (b2 <= 102)) {\r\n\t\t\t\tb2 -= 87;\r\n\t\t\t} else if ((b2 >= 65) && (b2 <= 70)) {\r\n\t\t\t\tb2 -= 55;\r\n\t\t\t} else if ((b2 >= 48) && (b2 <= 57)) {\r\n\t\t\t\tb2 -= 48;\r\n\t\t\t}\r\n\t\t\tiaddr += (b1 * 16 + b2);\r\n\t\t}\r\n\t\treturn address(iaddr);\r\n\t}\r\n\t\r\n\t\r\n\tfunction loginVoter(string memory _email, string memory _password) public returns (bool)\r\n    {\r\n\t\trequire(voters[msg.sender].isRegistered);\r\n\t\t//require(!voters[msg.sender].isLoggedIn);\r\n        require (\r\n\t\t\tkeccak256(abi.encodePacked(voterdetails[msg.sender].email)) ==\r\n            keccak256(abi.encodePacked(_email))  &&\r\n            keccak256(abi.encodePacked(voterdetails[msg.sender].pass)) ==\r\n            keccak256(abi.encodePacked(_password))\r\n\t\t\t\r\n        );\r\n\t\t\r\n        voters[msg.sender].isLoggedIn = true;\r\n    }\r\n\t\r\n\tfunction registerVoter(string memory _email,string memory _password,string memory _age) public returns (bool) {\r\n\t\trequire(!voters[msg.sender].isRegistered);\r\n\t\ttotalVoters+= 1;\r\n\t\tvoterList[totalVoters] = msg.sender;\r\n\t\tvoters[msg.sender].isRegistered = true;\r\n\t\tvoterdetails[msg.sender] = VoterDetails(_email,_password,_age);\r\n        return true;\r\n    }\r\n\t\r\n\tfunction checkIsUserLogged() public view returns (bool) {\r\n        return (voters[msg.sender].isLoggedIn);\r\n    }\r\n\t\r\n\tfunction logout() public {\r\n        voters[msg.sender].isLoggedIn = false;\r\n    }\r\n\t\r\n\tevent votedEvent (\r\n        uint indexed _voteIndex\r\n    );\r\n    \r\n    function addCandidate(bytes32 _name) private {\r\n        require(msg.sender == chairman);\r\n        totalCandidates+= 1;\r\n        candidates[totalCandidates] = Candidate(totalCandidates,_name, 0);\r\n    }\r\n\r\n    function vote(uint _voteIndex) public {\r\n\t\trequire(voters[msg.sender].isRegistered);\r\n\t\trequire(voters[msg.sender].allowedToVote);\r\n\t\trequire(_voteIndex > 0 && _voteIndex <= totalCandidates);       \r\n        voters[msg.sender].vote = _voteIndex;\r\n        voters[msg.sender].hasVoted = true;\r\n        \r\n        candidates[_voteIndex].totalVotes += 1;\r\n\t\temit votedEvent(_voteIndex);\r\n    }\r\n\r\n}\r\n",
  "sourcePath": "C:\\Users\\cemal\\OneDrive\\Sənədlər\\GitHub\\Thesis\\contracts\\eVote.sol",
  "compiler": {
    "name": "solc",
    "version": "0.5.16+commit.9c3226ce.Emscripten.clang"
  },
  "schemaVersion": "3.4.3",
  "updatedAt": "2021-10-29T15:00:55.354Z",
  "devdoc": {
    "methods": {}
  },
  "userdoc": {
    "methods": {}
  }
}