{
  "contractName": "eVote",
  "abi": [
    {
      "inputs": [],
      "payable": false,
      "stateMutability": "nonpayable",
      "type": "constructor"
    },
    {
      "anonymous": false,
      "inputs": [
        {
          "indexed": true,
          "internalType": "uint256",
          "name": "_voteIndex",
          "type": "uint256"
        }
      ],
      "name": "votedEvent",
      "type": "event"
    },
    {
      "constant": true,
      "inputs": [
        {
          "internalType": "uint256",
          "name": "",
          "type": "uint256"
        }
      ],
      "name": "candidates",
      "outputs": [
        {
          "internalType": "uint256",
          "name": "id",
          "type": "uint256"
        },
        {
          "internalType": "bytes32",
          "name": "name",
          "type": "bytes32"
        },
        {
          "internalType": "uint256",
          "name": "totalVotes",
          "type": "uint256"
        }
      ],
      "payable": false,
      "stateMutability": "view",
      "type": "function"
    },
    {
      "constant": true,
      "inputs": [],
      "name": "chairman",
      "outputs": [
        {
          "internalType": "address payable",
          "name": "",
          "type": "address"
        }
      ],
      "payable": false,
      "stateMutability": "view",
      "type": "function"
    },
    {
      "constant": true,
      "inputs": [],
      "name": "totalCandidates",
      "outputs": [
        {
          "internalType": "uint256",
          "name": "",
          "type": "uint256"
        }
      ],
      "payable": false,
      "stateMutability": "view",
      "type": "function"
    },
    {
      "constant": true,
      "inputs": [],
      "name": "totalVoters",
      "outputs": [
        {
          "internalType": "uint256",
          "name": "",
          "type": "uint256"
        }
      ],
      "payable": false,
      "stateMutability": "view",
      "type": "function"
    },
    {
      "constant": true,
      "inputs": [
        {
          "internalType": "address",
          "name": "",
          "type": "address"
        }
      ],
      "name": "voters",
      "outputs": [
        {
          "internalType": "bool",
          "name": "hasVoted",
          "type": "bool"
        },
        {
          "internalType": "uint256",
          "name": "vote",
          "type": "uint256"
        }
      ],
      "payable": false,
      "stateMutability": "view",
      "type": "function"
    },
    {
      "constant": false,
      "inputs": [
        {
          "internalType": "string",
          "name": "_email",
          "type": "string"
        },
        {
          "internalType": "string",
          "name": "_password",
          "type": "string"
        }
      ],
      "name": "loginVoter",
      "outputs": [
        {
          "internalType": "bool",
          "name": "",
          "type": "bool"
        }
      ],
      "payable": false,
      "stateMutability": "nonpayable",
      "type": "function"
    },
    {
      "constant": false,
      "inputs": [
        {
          "internalType": "string",
          "name": "_email",
          "type": "string"
        },
        {
          "internalType": "string",
          "name": "_password",
          "type": "string"
        },
        {
          "internalType": "string",
          "name": "_age",
          "type": "string"
        }
      ],
      "name": "registerVoter",
      "outputs": [
        {
          "internalType": "bool",
          "name": "",
          "type": "bool"
        }
      ],
      "payable": false,
      "stateMutability": "nonpayable",
      "type": "function"
    },
    {
      "constant": false,
      "inputs": [
        {
          "internalType": "uint256",
          "name": "_voteIndex",
          "type": "uint256"
        }
      ],
      "name": "vote",
      "outputs": [],
      "payable": false,
      "stateMutability": "nonpayable",
      "type": "function"
    }
  ],
  "bytecode": "0x60806040526000600455600060055534801561001a57600080fd5b50336000806101000a81548173ffffffffffffffffffffffffffffffffffffffff021916908373ffffffffffffffffffffffffffffffffffffffff16021790555061008a7f46697273742043616e64696461746500000000000000000000000000000000006100ed60201b60201c565b6100b97f5365636f6e642043616e646964617465000000000000000000000000000000006100ed60201b60201c565b6100e87f54686972642043616e64696461746500000000000000000000000000000000006100ed60201b60201c565b6101ae565b6000809054906101000a900473ffffffffffffffffffffffffffffffffffffffff1673ffffffffffffffffffffffffffffffffffffffff163373ffffffffffffffffffffffffffffffffffffffff161461014657600080fd5b600160056000828254019250508190555060405180606001604052806005548152602001828152602001600081525060036000600554815260200190815260200160002060008201518160000155602082015181600101556040820151816002015590505050565b610c9f806101bd6000396000f3fe608060405234801561001057600080fd5b50600436106100885760003560e01c8063400af02a1161005b578063400af02a1461032a5780635f5300ff1461049457806387f7b975146104b2578063a3ec138d146104fc57610088565b80630121b93f1461008d57806307439509146100bb5780633477ee2e146102bc5780633866965c1461030c575b600080fd5b6100b9600480360360208110156100a357600080fd5b810190808035906020019092919050505061055f565b005b6102a2600480360360608110156100d157600080fd5b81019080803590602001906401000000008111156100ee57600080fd5b82018360208201111561010057600080fd5b8035906020019184600183028401116401000000008311171561012257600080fd5b91908080601f016020809104026020016040519081016040528093929190818152602001838380828437600081840152601f19601f8201169050808301925050505050505091929192908035906020019064010000000081111561018557600080fd5b82018360208201111561019757600080fd5b803590602001918460018302840111640100000000831117156101b957600080fd5b91908080601f016020809104026020016040519081016040528093929190818152602001838380828437600081840152601f19601f8201169050808301925050505050505091929192908035906020019064010000000081111561021c57600080fd5b82018360208201111561022e57600080fd5b8035906020019184600183028401116401000000008311171561025057600080fd5b91908080601f016020809104026020016040519081016040528093929190818152602001838380828437600081840152601f19601f820116905080830192505050505050509192919290505050610670565b604051808215151515815260200191505060405180910390f35b6102e8600480360360208110156102d257600080fd5b8101908080359060200190929190505050610806565b60405180848152602001838152602001828152602001935050505060405180910390f35b610314610830565b6040518082815260200191505060405180910390f35b61047a6004803603604081101561034057600080fd5b810190808035906020019064010000000081111561035d57600080fd5b82018360208201111561036f57600080fd5b8035906020019184600183028401116401000000008311171561039157600080fd5b91908080601f016020809104026020016040519081016040528093929190818152602001838380828437600081840152601f19601f820116905080830192505050505050509192919290803590602001906401000000008111156103f457600080fd5b82018360208201111561040657600080fd5b8035906020019184600183028401116401000000008311171561042857600080fd5b91908080601f016020809104026020016040519081016040528093929190818152602001838380828437600081840152601f19601f820116905080830192505050505050509192919290505050610836565b604051808215151515815260200191505060405180910390f35b61049c610b69565b6040518082815260200191505060405180910390f35b6104ba610b6f565b604051808273ffffffffffffffffffffffffffffffffffffffff1673ffffffffffffffffffffffffffffffffffffffff16815260200191505060405180910390f35b61053e6004803603602081101561051257600080fd5b81019080803573ffffffffffffffffffffffffffffffffffffffff169060200190929190505050610b94565b60405180831515151581526020018281526020019250505060405180910390f35b60008111801561057157506005548111155b61057a57600080fd5b80600160003373ffffffffffffffffffffffffffffffffffffffff1673ffffffffffffffffffffffffffffffffffffffff1681526020019081526020016000206001018190555060018060003373ffffffffffffffffffffffffffffffffffffffff1673ffffffffffffffffffffffffffffffffffffffff16815260200190815260200160002060000160006101000a81548160ff02191690831515021790555060016003600083815260200190815260200160002060020160008282540192505081905550807ffff3c900d938d21d0990d786e819f29b8d05c1ef587b462b939609625b684b1660405160405180910390a250565b6000600260003373ffffffffffffffffffffffffffffffffffffffff1673ffffffffffffffffffffffffffffffffffffffff16815260200190815260200160002060030160009054906101000a900460ff16156106cc57600080fd5b6040518060c0016040528085815260200184815260200183815260200160011515815260200160001515815260200160001515815250600260003373ffffffffffffffffffffffffffffffffffffffff1673ffffffffffffffffffffffffffffffffffffffff168152602001908152602001600020600082015181600001908051906020019061075d929190610bc5565b50602082015181600101908051906020019061077a929190610bc5565b506040820151816002019080519060200190610797929190610bc5565b5060608201518160030160006101000a81548160ff02191690831515021790555060808201518160030160016101000a81548160ff02191690831515021790555060a08201518160030160026101000a81548160ff021916908315150217905550905050600190509392505050565b60036020528060005260406000206000915090508060000154908060010154908060020154905083565b60055481565b6000600260003373ffffffffffffffffffffffffffffffffffffffff1673ffffffffffffffffffffffffffffffffffffffff16815260200190815260200160002060030160009054906101000a900460ff1661089157600080fd5b826040516020018082805190602001908083835b602083106108c857805182526020820191506020810190506020830392506108a5565b6001836020036101000a03801982511681845116808217855250505050505090500191505060405160208183030381529060405280519060200120600260003373ffffffffffffffffffffffffffffffffffffffff1673ffffffffffffffffffffffffffffffffffffffff16815260200190815260200160002060000160405160200180828054600181600116156101000203166002900480156109a35780601f106109815761010080835404028352918201916109a3565b820191906000526020600020905b81548152906001019060200180831161098f575b505091505060405160208183030381529060405280519060200120148015610af55750816040516020018082805190602001908083835b602083106109fd57805182526020820191506020810190506020830392506109da565b6001836020036101000a03801982511681845116808217855250505050505090500191505060405160208183030381529060405280519060200120600260003373ffffffffffffffffffffffffffffffffffffffff1673ffffffffffffffffffffffffffffffffffffffff1681526020019081526020016000206001016040516020018082805460018160011615610100020316600290048015610ad85780601f10610ab6576101008083540402835291820191610ad8565b820191906000526020600020905b815481529060010190602001808311610ac4575b505091505060405160208183030381529060405280519060200120145b15610b5e576001600260003373ffffffffffffffffffffffffffffffffffffffff1673ffffffffffffffffffffffffffffffffffffffff16815260200190815260200160002060030160016101000a81548160ff02191690831515021790555060019050610b63565b600090505b92915050565b60045481565b6000809054906101000a900473ffffffffffffffffffffffffffffffffffffffff1681565b60016020528060005260406000206000915090508060000160009054906101000a900460ff16908060010154905082565b828054600181600116156101000203166002900490600052602060002090601f016020900481019282601f10610c0657805160ff1916838001178555610c34565b82800160010185558215610c34579182015b82811115610c33578251825591602001919060010190610c18565b5b509050610c419190610c45565b5090565b610c6791905b80821115610c63576000816000905550600101610c4b565b5090565b9056fea265627a7a72315820f1fdf374ec6470664657c287ec9c53951c38b517a310e292515cdca1aaf8420f64736f6c63430005100032",
  "source": "\r\n// File: contracts/eVote.sol\r\n// SPDX-License-Identifier: MIT\r\npragma solidity ^0.5.16;\r\n\r\ncontract eVote {\r\n    struct Voter {\r\n        bool hasVoted;\r\n        uint vote;\r\n    }\r\n\t\r\n\tstruct VoterDetails{\r\n\t\tstring email;\r\n\t\tstring pass;\r\n\t\tstring age;\r\n\t\tbool isRegistered;\r\n\t\tbool isLoggedIn;\r\n\t\tbool allowedToVote;\r\n\t\r\n\t}\r\n\t\r\n    struct Candidate {\r\n        uint id;\r\n        bytes32 name;\r\n        uint totalVotes;\r\n    }\r\n    \r\n    address payable public chairman;\r\n    \r\n    mapping(address => Voter) public voters;\r\n\tmapping(address => VoterDetails) voterdetails;\r\n\t\r\n    mapping(uint => Candidate) public candidates;\r\n    \r\n    uint public totalVoters = 0;\r\n    uint public totalCandidates = 0;\r\n    \r\n    constructor () public {\r\n        chairman = (msg.sender);\r\n        addCandidate(\"First Candidate\");\r\n        addCandidate(\"Second Candidate\");\r\n        addCandidate(\"Third Candidate\");\r\n    }\r\n\t\r\n\t/*function voterAuth(address _voter) public {\r\n        require(msg.sender == chairman);\r\n        for(uint i=0;i<totalVoters;i++) {\r\n\t\t\tif(voters[voterList[i]].user_adrs == _voter){\r\n\t\t\t\tvoters[voterList[i]].allowedToVote = true;\r\n\t\t\t}\r\n\t\t\t\r\n\t\t}\r\n    }*/\r\n\t\r\n\t\r\n\tfunction loginVoter(string memory _email, string memory _password) public returns (bool)\r\n    {\r\n\t\trequire(voterdetails[msg.sender].isRegistered);\r\n\t\t//require(!voterdetails[msg.sender].isLoggedIn);\r\n        if (\r\n\t\t\tkeccak256(abi.encodePacked(voterdetails[msg.sender].email)) ==\r\n            keccak256(abi.encodePacked(_email))  &&\r\n            keccak256(abi.encodePacked(voterdetails[msg.sender].pass)) ==\r\n            keccak256(abi.encodePacked(_password))\r\n\t\t\t\r\n        ) {\r\n            voterdetails[msg.sender].isLoggedIn = true;\r\n            return true;\r\n        } else {\r\n            return false;\r\n        }\r\n    }\r\n\t\r\n\tfunction registerVoter(string memory _email,string memory _password,string memory _age) public returns (bool) {\r\n\t\trequire(!voterdetails[msg.sender].isRegistered);\r\n\t\tvoterdetails[msg.sender] = VoterDetails(_email,_password,_age,true,false, false);\r\n        return true;\r\n    }\r\n\t\r\n\t/*function checkIsUserLogged(address _address) public view returns (bool) {\r\n        return (voterdetails[_address].isLoggedIn);\r\n    }\r\n\t\r\n\tfunction logout() public {\r\n        voterdetails[msg.sender].isLoggedIn = false;\r\n    }*/\r\n\t\r\n\tevent votedEvent (\r\n        uint indexed _voteIndex\r\n    );\r\n    \r\n    function addCandidate(bytes32 _name) private {\r\n        require(msg.sender == chairman);\r\n        totalCandidates+= 1;\r\n        candidates[totalCandidates] = Candidate(totalCandidates,_name, 0);\r\n    }\r\n\t\r\n\t\r\n\r\n    function vote(uint _voteIndex) public {\r\n\t\trequire(_voteIndex > 0 && _voteIndex <= totalCandidates);       \r\n        voters[msg.sender].vote = _voteIndex;\r\n        voters[msg.sender].hasVoted = true;\r\n        \r\n        candidates[_voteIndex].totalVotes += 1;\r\n\t\t\r\n\t\temit votedEvent(_voteIndex);\r\n    }\r\n\r\n}\r\n",
  "sourcePath": "C:\\Users\\cemal\\OneDrive\\Sənədlər\\GitHub\\Thesis\\contracts\\eVote.sol",
  "compiler": {
    "name": "solc",
    "version": "0.5.16+commit.9c3226ce.Emscripten.clang"
  },
  "schemaVersion": "3.4.3",
  "updatedAt": "2021-10-02T17:17:43.248Z",
  "networkType": "ethereum",
  "devdoc": {
    "methods": {}
  },
  "userdoc": {
    "methods": {}
  }
}