{
  "contractName": "eVote",
  "abi": [
    {
      "inputs": [],
      "payable": false,
      "stateMutability": "nonpayable",
      "type": "constructor"
    },
    {
      "anonymous": false,
      "inputs": [
        {
          "indexed": true,
          "internalType": "uint256",
          "name": "_voteIndex",
          "type": "uint256"
        }
      ],
      "name": "votedEvent",
      "type": "event"
    },
    {
      "constant": true,
      "inputs": [
        {
          "internalType": "uint256",
          "name": "",
          "type": "uint256"
        }
      ],
      "name": "candidates",
      "outputs": [
        {
          "internalType": "uint256",
          "name": "id",
          "type": "uint256"
        },
        {
          "internalType": "bytes32",
          "name": "name",
          "type": "bytes32"
        },
        {
          "internalType": "uint256",
          "name": "totalVotes",
          "type": "uint256"
        }
      ],
      "payable": false,
      "stateMutability": "view",
      "type": "function"
    },
    {
      "constant": true,
      "inputs": [],
      "name": "chairman",
      "outputs": [
        {
          "internalType": "address payable",
          "name": "",
          "type": "address"
        }
      ],
      "payable": false,
      "stateMutability": "view",
      "type": "function"
    },
    {
      "constant": true,
      "inputs": [],
      "name": "startVote",
      "outputs": [
        {
          "internalType": "bool",
          "name": "",
          "type": "bool"
        }
      ],
      "payable": false,
      "stateMutability": "view",
      "type": "function"
    },
    {
      "constant": true,
      "inputs": [],
      "name": "stopVote",
      "outputs": [
        {
          "internalType": "bool",
          "name": "",
          "type": "bool"
        }
      ],
      "payable": false,
      "stateMutability": "view",
      "type": "function"
    },
    {
      "constant": true,
      "inputs": [],
      "name": "totalCandidates",
      "outputs": [
        {
          "internalType": "uint256",
          "name": "",
          "type": "uint256"
        }
      ],
      "payable": false,
      "stateMutability": "view",
      "type": "function"
    },
    {
      "constant": true,
      "inputs": [],
      "name": "totalVoters",
      "outputs": [
        {
          "internalType": "uint256",
          "name": "",
          "type": "uint256"
        }
      ],
      "payable": false,
      "stateMutability": "view",
      "type": "function"
    },
    {
      "constant": true,
      "inputs": [
        {
          "internalType": "uint256",
          "name": "",
          "type": "uint256"
        }
      ],
      "name": "voterList",
      "outputs": [
        {
          "internalType": "address",
          "name": "",
          "type": "address"
        }
      ],
      "payable": false,
      "stateMutability": "view",
      "type": "function"
    },
    {
      "constant": true,
      "inputs": [
        {
          "internalType": "address",
          "name": "",
          "type": "address"
        }
      ],
      "name": "voters",
      "outputs": [
        {
          "internalType": "bool",
          "name": "hasVoted",
          "type": "bool"
        },
        {
          "internalType": "uint256",
          "name": "vote",
          "type": "uint256"
        },
        {
          "internalType": "bool",
          "name": "isRegistered",
          "type": "bool"
        },
        {
          "internalType": "bool",
          "name": "isLoggedIn",
          "type": "bool"
        },
        {
          "internalType": "bool",
          "name": "allowedToVote",
          "type": "bool"
        }
      ],
      "payable": false,
      "stateMutability": "view",
      "type": "function"
    },
    {
      "constant": false,
      "inputs": [
        {
          "internalType": "string",
          "name": "_voter",
          "type": "string"
        }
      ],
      "name": "voterAuth",
      "outputs": [
        {
          "internalType": "bool",
          "name": "",
          "type": "bool"
        }
      ],
      "payable": false,
      "stateMutability": "nonpayable",
      "type": "function"
    },
    {
      "constant": false,
      "inputs": [
        {
          "internalType": "string",
          "name": "_email",
          "type": "string"
        },
        {
          "internalType": "string",
          "name": "_password",
          "type": "string"
        }
      ],
      "name": "loginVoter",
      "outputs": [
        {
          "internalType": "bool",
          "name": "",
          "type": "bool"
        }
      ],
      "payable": false,
      "stateMutability": "nonpayable",
      "type": "function"
    },
    {
      "constant": false,
      "inputs": [
        {
          "internalType": "string",
          "name": "_email",
          "type": "string"
        },
        {
          "internalType": "string",
          "name": "_password",
          "type": "string"
        },
        {
          "internalType": "string",
          "name": "_age",
          "type": "string"
        }
      ],
      "name": "registerVoter",
      "outputs": [
        {
          "internalType": "bool",
          "name": "",
          "type": "bool"
        }
      ],
      "payable": false,
      "stateMutability": "nonpayable",
      "type": "function"
    },
    {
      "constant": true,
      "inputs": [],
      "name": "checkIsUserLogged",
      "outputs": [
        {
          "internalType": "bool",
          "name": "",
          "type": "bool"
        }
      ],
      "payable": false,
      "stateMutability": "view",
      "type": "function"
    },
    {
      "constant": false,
      "inputs": [],
      "name": "logout",
      "outputs": [],
      "payable": false,
      "stateMutability": "nonpayable",
      "type": "function"
    },
    {
      "constant": false,
      "inputs": [],
      "name": "startVoting",
      "outputs": [],
      "payable": false,
      "stateMutability": "nonpayable",
      "type": "function"
    },
    {
      "constant": false,
      "inputs": [],
      "name": "stopVoting",
      "outputs": [],
      "payable": false,
      "stateMutability": "nonpayable",
      "type": "function"
    },
    {
      "constant": false,
      "inputs": [
        {
          "internalType": "bytes32",
          "name": "_name",
          "type": "bytes32"
        }
      ],
      "name": "addCandidate",
      "outputs": [],
      "payable": false,
      "stateMutability": "nonpayable",
      "type": "function"
    },
    {
      "constant": false,
      "inputs": [
        {
          "internalType": "uint256",
          "name": "_voteIndex",
          "type": "uint256"
        }
      ],
      "name": "vote",
      "outputs": [],
      "payable": false,
      "stateMutability": "nonpayable",
      "type": "function"
    }
  ],
  "bytecode": "0x6080604052600060055560006006556000600760006101000a81548160ff0219169083151502179055506001600760016101000a81548160ff02191690831515021790555034801561005057600080fd5b50336000806101000a81548173ffffffffffffffffffffffffffffffffffffffff021916908373ffffffffffffffffffffffffffffffffffffffff1602179055506115c7806100a06000396000f3fe608060405234801561001057600080fd5b506004361061010b5760003560e01c8063400af02a116100a257806387f7b9751161007157806387f7b97514610629578063a3ec138d14610673578063ad12659c146106f7578063e280ab3c14610719578063fab2f86b146107ec5761010b565b8063400af02a146104115780634c0a6af01461057b57806350e2e8af1461059d5780635f5300ff1461060b5761010b565b8063230d6ed8116100de578063230d6ed8146103535780632495c0ce146103815780633477ee2e146103a35780633866965c146103f35761010b565b80630121b93f14610110578063074395091461013e5780631ec6b60a1461033f5780631f3c99c314610349575b600080fd5b61013c6004803603602081101561012657600080fd5b81019080803590602001909291905050506107f6565b005b6103256004803603606081101561015457600080fd5b810190808035906020019064010000000081111561017157600080fd5b82018360208201111561018357600080fd5b803590602001918460018302840111640100000000831117156101a557600080fd5b91908080601f016020809104026020016040519081016040528093929190818152602001838380828437600081840152601f19601f8201169050808301925050505050505091929192908035906020019064010000000081111561020857600080fd5b82018360208201111561021a57600080fd5b8035906020019184600183028401116401000000008311171561023c57600080fd5b91908080601f016020809104026020016040519081016040528093929190818152602001838380828437600081840152601f19601f8201169050808301925050505050505091929192908035906020019064010000000081111561029f57600080fd5b8201836020820111156102b157600080fd5b803590602001918460018302840111640100000000831117156102d357600080fd5b91908080601f016020809104026020016040519081016040528093929190818152602001838380828437600081840152601f19601f8201169050808301925050505050505091929192905050506109d2565b604051808215151515815260200191505060405180910390f35b610347610bac565b005b610351610be4565b005b61037f6004803603602081101561036957600080fd5b8101908080359060200190929190505050610c41565b005b610389610ca9565b604051808215151515815260200191505060405180910390f35b6103cf600480360360208110156103b957600080fd5b8101908080359060200190929190505050610cbc565b60405180848152602001838152602001828152602001935050505060405180910390f35b6103fb610ce6565b6040518082815260200191505060405180910390f35b6105616004803603604081101561042757600080fd5b810190808035906020019064010000000081111561044457600080fd5b82018360208201111561045657600080fd5b8035906020019184600183028401116401000000008311171561047857600080fd5b91908080601f016020809104026020016040519081016040528093929190818152602001838380828437600081840152601f19601f820116905080830192505050505050509192919290803590602001906401000000008111156104db57600080fd5b8201836020820111156104ed57600080fd5b8035906020019184600183028401116401000000008311171561050f57600080fd5b91908080601f016020809104026020016040519081016040528093929190818152602001838380828437600081840152601f19601f820116905080830192505050505050509192919290505050610cec565b604051808215151515815260200191505060405180910390f35b610583611014565b604051808215151515815260200191505060405180910390f35b6105c9600480360360208110156105b357600080fd5b8101908080359060200190929190505050611027565b604051808273ffffffffffffffffffffffffffffffffffffffff1673ffffffffffffffffffffffffffffffffffffffff16815260200191505060405180910390f35b61061361105a565b6040518082815260200191505060405180910390f35b610631611060565b604051808273ffffffffffffffffffffffffffffffffffffffff1673ffffffffffffffffffffffffffffffffffffffff16815260200191505060405180910390f35b6106b56004803603602081101561068957600080fd5b81019080803573ffffffffffffffffffffffffffffffffffffffff169060200190929190505050611085565b60405180861515151581526020018581526020018415151515815260200183151515158152602001821515151581526020019550505050505060405180910390f35b6106ff6110ef565b604051808215151515815260200191505060405180910390f35b6107d26004803603602081101561072f57600080fd5b810190808035906020019064010000000081111561074c57600080fd5b82018360208201111561075e57600080fd5b8035906020019184600183028401116401000000008311171561078057600080fd5b91908080601f016020809104026020016040519081016040528093929190818152602001838380828437600081840152601f19601f820116905080830192505050505050509192919290505050611146565b604051808215151515815260200191505060405180910390f35b6107f461125c565b005b600160003373ffffffffffffffffffffffffffffffffffffffff1673ffffffffffffffffffffffffffffffffffffffff16815260200190815260200160002060020160009054906101000a900460ff1661084f57600080fd5b600160003373ffffffffffffffffffffffffffffffffffffffff1673ffffffffffffffffffffffffffffffffffffffff16815260200190815260200160002060020160029054906101000a900460ff166108a857600080fd5b600760009054906101000a900460ff166108c157600080fd5b6000811180156108d357506006548111155b6108dc57600080fd5b80600160003373ffffffffffffffffffffffffffffffffffffffff1673ffffffffffffffffffffffffffffffffffffffff1681526020019081526020016000206001018190555060018060003373ffffffffffffffffffffffffffffffffffffffff1673ffffffffffffffffffffffffffffffffffffffff16815260200190815260200160002060000160006101000a81548160ff02191690831515021790555060016004600083815260200190815260200160002060020160008282540192505081905550807ffff3c900d938d21d0990d786e819f29b8d05c1ef587b462b939609625b684b1660405160405180910390a250565b6000600160003373ffffffffffffffffffffffffffffffffffffffff1673ffffffffffffffffffffffffffffffffffffffff16815260200190815260200160002060020160009054906101000a900460ff1615610a2e57600080fd5b60016005600082825401925050819055503360036000600554815260200190815260200160002060006101000a81548173ffffffffffffffffffffffffffffffffffffffff021916908373ffffffffffffffffffffffffffffffffffffffff16021790555060018060003373ffffffffffffffffffffffffffffffffffffffff1673ffffffffffffffffffffffffffffffffffffffff16815260200190815260200160002060020160006101000a81548160ff021916908315150217905550604051806060016040528085815260200184815260200183815250600260003373ffffffffffffffffffffffffffffffffffffffff1673ffffffffffffffffffffffffffffffffffffffff1681526020019081526020016000206000820151816000019080519060200190610b639291906114ed565b506020820151816001019080519060200190610b809291906114ed565b506040820151816002019080519060200190610b9d9291906114ed565b50905050600190509392505050565b6001600760006101000a81548160ff0219169083151502179055506000600760016101000a81548160ff021916908315150217905550565b6000600160003373ffffffffffffffffffffffffffffffffffffffff1673ffffffffffffffffffffffffffffffffffffffff16815260200190815260200160002060020160016101000a81548160ff021916908315150217905550565b600160066000828254019250508190555060405180606001604052806006548152602001828152602001600081525060046000600654815260200190815260200160002060008201518160000155602082015181600101556040820151816002015590505050565b600760019054906101000a900460ff1681565b60046020528060005260406000206000915090508060000154908060010154908060020154905083565b60065481565b6000600160003373ffffffffffffffffffffffffffffffffffffffff1673ffffffffffffffffffffffffffffffffffffffff16815260200190815260200160002060020160009054906101000a900460ff16610d4757600080fd5b826040516020018082805190602001908083835b60208310610d7e5780518252602082019150602081019050602083039250610d5b565b6001836020036101000a03801982511681845116808217855250505050505090500191505060405160208183030381529060405280519060200120600260003373ffffffffffffffffffffffffffffffffffffffff1673ffffffffffffffffffffffffffffffffffffffff1681526020019081526020016000206000016040516020018082805460018160011615610100020316600290048015610e595780601f10610e37576101008083540402835291820191610e59565b820191906000526020600020905b815481529060010190602001808311610e45575b505091505060405160208183030381529060405280519060200120148015610fab5750816040516020018082805190602001908083835b60208310610eb35780518252602082019150602081019050602083039250610e90565b6001836020036101000a03801982511681845116808217855250505050505090500191505060405160208183030381529060405280519060200120600260003373ffffffffffffffffffffffffffffffffffffffff1673ffffffffffffffffffffffffffffffffffffffff1681526020019081526020016000206001016040516020018082805460018160011615610100020316600290048015610f8e5780601f10610f6c576101008083540402835291820191610f8e565b820191906000526020600020905b815481529060010190602001808311610f7a575b505091505060405160208183030381529060405280519060200120145b610fb457600080fd5b60018060003373ffffffffffffffffffffffffffffffffffffffff1673ffffffffffffffffffffffffffffffffffffffff16815260200190815260200160002060020160016101000a81548160ff02191690831515021790555092915050565b600760009054906101000a900460ff1681565b60036020528060005260406000206000915054906101000a900473ffffffffffffffffffffffffffffffffffffffff1681565b60055481565b6000809054906101000a900473ffffffffffffffffffffffffffffffffffffffff1681565b60016020528060005260406000206000915090508060000160009054906101000a900460ff16908060010154908060020160009054906101000a900460ff16908060020160019054906101000a900460ff16908060020160029054906101000a900460ff16905085565b6000600160003373ffffffffffffffffffffffffffffffffffffffff1673ffffffffffffffffffffffffffffffffffffffff16815260200190815260200160002060020160019054906101000a900460ff16905090565b60008061115283611294565b9050600160008273ffffffffffffffffffffffffffffffffffffffff1673ffffffffffffffffffffffffffffffffffffffff16815260200190815260200160002060020160009054906101000a900460ff16156112045760018060008373ffffffffffffffffffffffffffffffffffffffff1673ffffffffffffffffffffffffffffffffffffffff16815260200190815260200160002060020160026101000a81548160ff0219169083151502179055505b600160008273ffffffffffffffffffffffffffffffffffffffff1673ffffffffffffffffffffffffffffffffffffffff16815260200190815260200160002060020160029054906101000a900460ff16915050919050565b6001600760016101000a81548160ff0219169083151502179055506000600760006101000a81548160ff021916908315150217905550565b6000606082905060008090506000806000600290505b602a8110156114e057610100840293508481815181106112c657fe5b602001015160f81c60f81b60f81c60ff1692508460018201815181106112e857fe5b602001015160f81c60f81b60f81c60ff16915060618373ffffffffffffffffffffffffffffffffffffffff1610158015611339575060668373ffffffffffffffffffffffffffffffffffffffff1611155b15611349576057830392506113e3565b60418373ffffffffffffffffffffffffffffffffffffffff1610158015611387575060468373ffffffffffffffffffffffffffffffffffffffff1611155b15611397576037830392506113e2565b60308373ffffffffffffffffffffffffffffffffffffffff16101580156113d5575060398373ffffffffffffffffffffffffffffffffffffffff1611155b156113e1576030830392505b5b5b60618273ffffffffffffffffffffffffffffffffffffffff1610158015611421575060668273ffffffffffffffffffffffffffffffffffffffff1611155b15611431576057820391506114cb565b60418273ffffffffffffffffffffffffffffffffffffffff161015801561146f575060468273ffffffffffffffffffffffffffffffffffffffff1611155b1561147f576037820391506114ca565b60308273ffffffffffffffffffffffffffffffffffffffff16101580156114bd575060398273ffffffffffffffffffffffffffffffffffffffff1611155b156114c9576030820391505b5b5b816010840201840193506002810190506112aa565b5082945050505050919050565b828054600181600116156101000203166002900490600052602060002090601f016020900481019282601f1061152e57805160ff191683800117855561155c565b8280016001018555821561155c579182015b8281111561155b578251825591602001919060010190611540565b5b509050611569919061156d565b5090565b61158f91905b8082111561158b576000816000905550600101611573565b5090565b9056fea265627a7a72315820d15465588f1a3cbf4171e7a4cc206de8a450d4c7e0821ee44eacc06acf715a3564736f6c63430005100032",
  "source": "// File: contracts/eVote.sol\r\n// SPDX-License-Identifier: MIT\r\npragma solidity ^0.5.16;\r\n\r\ncontract eVote {\r\n    struct Voter {\r\n        bool hasVoted;\r\n        uint vote;\r\n\t\tbool isRegistered;\r\n\t\tbool isLoggedIn;\r\n\t\tbool allowedToVote;\r\n    }\r\n\tstruct VoterDetails{\r\n\t\tstring email;\r\n\t\tstring pass;\r\n\t\tstring age;\r\n\t\r\n\t}\r\n    struct Candidate {\r\n        uint id;\r\n        bytes32 name;\r\n        uint totalVotes;\r\n    }\r\n    \r\n    address payable public chairman;\r\n\t\r\n    mapping(address => Voter) public voters;\r\n\tmapping(address => VoterDetails) voterdetails;\r\n\tmapping(uint => address) public voterList;\r\n    mapping(uint => Candidate) public candidates;\r\n    \r\n    uint public totalVoters = 0;\r\n    uint public totalCandidates = 0;\r\n\t\r\n\tbool public startVote = false;\r\n\tbool public stopVote = true;\r\n    \r\n    constructor () public {\r\n        chairman = (msg.sender);\r\n    }\r\n\t\r\n\tfunction voterAuth(string memory _voter) public returns (bool) {\r\n\t\taddress _voter_addr = parseAddr(_voter);\r\n\t\tif(voters[_voter_addr].isRegistered){\r\n\t\t\tvoters[_voter_addr].allowedToVote = true;\r\n\t\t}\r\n\t\treturn voters[_voter_addr].allowedToVote;\r\n    }\r\n\r\n\tfunction parseAddr(string memory _a) internal pure returns (address _parsedAddress) {\r\n\t\tbytes memory tmp = bytes(_a);\r\n\t\tuint160 iaddr = 0;\r\n\t\tuint160 b1;\r\n\t\tuint160 b2;\r\n\t\tfor (uint i = 2; i < 2 + 2 * 20; i += 2) {\r\n\t\t\tiaddr *= 256;\r\n\t\t\tb1 = uint160(uint8(tmp[i]));\r\n\t\t\tb2 = uint160(uint8(tmp[i + 1]));\r\n\t\t\tif ((b1 >= 97) && (b1 <= 102)) {\r\n\t\t\t\tb1 -= 87;\r\n\t\t\t} else if ((b1 >= 65) && (b1 <= 70)) {\r\n\t\t\t\tb1 -= 55;\r\n\t\t\t} else if ((b1 >= 48) && (b1 <= 57)) {\r\n\t\t\t\tb1 -= 48;\r\n\t\t\t}\r\n\t\t\tif ((b2 >= 97) && (b2 <= 102)) {\r\n\t\t\t\tb2 -= 87;\r\n\t\t\t} else if ((b2 >= 65) && (b2 <= 70)) {\r\n\t\t\t\tb2 -= 55;\r\n\t\t\t} else if ((b2 >= 48) && (b2 <= 57)) {\r\n\t\t\t\tb2 -= 48;\r\n\t\t\t}\r\n\t\t\tiaddr += (b1 * 16 + b2);\r\n\t\t}\r\n\t\treturn address(iaddr);\r\n\t}\r\n\t\r\n\t\r\n\tfunction loginVoter(string memory _email, string memory _password) public returns (bool)\r\n    {\r\n\t\trequire(voters[msg.sender].isRegistered);\r\n\t\t//require(!voters[msg.sender].isLoggedIn);\r\n        require (\r\n\t\t\tkeccak256(abi.encodePacked(voterdetails[msg.sender].email)) ==\r\n            keccak256(abi.encodePacked(_email))  &&\r\n            keccak256(abi.encodePacked(voterdetails[msg.sender].pass)) ==\r\n            keccak256(abi.encodePacked(_password))\r\n\t\t\t\r\n        );\r\n\t\t\r\n        voters[msg.sender].isLoggedIn = true;\r\n    }\r\n\t\r\n\tfunction registerVoter(string memory _email,string memory _password,string memory _age) public returns (bool) {\r\n\t\trequire(!voters[msg.sender].isRegistered);\r\n\t\ttotalVoters+= 1;\r\n\t\tvoterList[totalVoters] = msg.sender;\r\n\t\tvoters[msg.sender].isRegistered = true;\r\n\t\tvoterdetails[msg.sender] = VoterDetails(_email,_password,_age);\r\n        return true;\r\n    }\r\n\t\r\n\tfunction checkIsUserLogged() public view returns (bool) {\r\n        return (voters[msg.sender].isLoggedIn);\r\n    }\r\n\t\r\n\tfunction logout() public {\r\n        voters[msg.sender].isLoggedIn = false;\r\n    }\r\n\t\r\n\tfunction startVoting() public {\r\n\t\tstartVote = true;\r\n\t\tstopVote = false;\r\n\t}\r\n\t\r\n\tfunction stopVoting() public {\r\n\t\tstopVote = true;\r\n\t\tstartVote = false;\r\n\t}\r\n\t\r\n\tevent votedEvent (\r\n        uint indexed _voteIndex\r\n    );\r\n    \r\n    function addCandidate(bytes32 _name) public {\r\n        totalCandidates+= 1;\r\n        candidates[totalCandidates] = Candidate(totalCandidates,_name, 0);\r\n    }\r\n\r\n    function vote(uint _voteIndex) public {\r\n\t\trequire(voters[msg.sender].isRegistered);\r\n\t\trequire(voters[msg.sender].allowedToVote);\r\n\t\trequire(startVote);\r\n\t\trequire(_voteIndex > 0 && _voteIndex <= totalCandidates);       \r\n        voters[msg.sender].vote = _voteIndex;\r\n        voters[msg.sender].hasVoted = true;\r\n        \r\n        candidates[_voteIndex].totalVotes += 1;\r\n\t\temit votedEvent(_voteIndex);\r\n    }\r\n\r\n}\r\n",
  "sourcePath": "C:\\Users\\cemal\\OneDrive\\Sənədlər\\GitHub\\Thesis\\contracts\\eVote.sol",
  "compiler": {
    "name": "solc",
    "version": "0.5.16+commit.9c3226ce.Emscripten.clang"
  },
  "schemaVersion": "3.4.3",
  "updatedAt": "2021-11-22T11:37:15.379Z",
  "devdoc": {
    "methods": {}
  },
  "userdoc": {
    "methods": {}
  }
}