{
  "contractName": "eVote",
  "abi": [
    {
      "inputs": [],
      "payable": false,
      "stateMutability": "nonpayable",
      "type": "constructor"
    },
    {
      "anonymous": false,
      "inputs": [
        {
          "indexed": true,
          "internalType": "uint256",
          "name": "_voteIndex",
          "type": "uint256"
        }
      ],
      "name": "votedEvent",
      "type": "event"
    },
    {
      "constant": true,
      "inputs": [],
      "name": "authorizeUsers",
      "outputs": [
        {
          "internalType": "bool",
          "name": "",
          "type": "bool"
        }
      ],
      "payable": false,
      "stateMutability": "view",
      "type": "function"
    },
    {
      "constant": true,
      "inputs": [],
      "name": "authorizedVoters",
      "outputs": [
        {
          "internalType": "uint256",
          "name": "",
          "type": "uint256"
        }
      ],
      "payable": false,
      "stateMutability": "view",
      "type": "function"
    },
    {
      "constant": true,
      "inputs": [
        {
          "internalType": "uint256",
          "name": "",
          "type": "uint256"
        }
      ],
      "name": "candidates",
      "outputs": [
        {
          "internalType": "uint256",
          "name": "id",
          "type": "uint256"
        },
        {
          "internalType": "bytes32",
          "name": "name",
          "type": "bytes32"
        },
        {
          "internalType": "uint256",
          "name": "totalVotes",
          "type": "uint256"
        }
      ],
      "payable": false,
      "stateMutability": "view",
      "type": "function"
    },
    {
      "constant": true,
      "inputs": [],
      "name": "finishedVote",
      "outputs": [
        {
          "internalType": "bool",
          "name": "",
          "type": "bool"
        }
      ],
      "payable": false,
      "stateMutability": "view",
      "type": "function"
    },
    {
      "constant": true,
      "inputs": [],
      "name": "registerCands",
      "outputs": [
        {
          "internalType": "bool",
          "name": "",
          "type": "bool"
        }
      ],
      "payable": false,
      "stateMutability": "view",
      "type": "function"
    },
    {
      "constant": true,
      "inputs": [],
      "name": "startVote",
      "outputs": [
        {
          "internalType": "bool",
          "name": "",
          "type": "bool"
        }
      ],
      "payable": false,
      "stateMutability": "view",
      "type": "function"
    },
    {
      "constant": true,
      "inputs": [],
      "name": "totalCandidates",
      "outputs": [
        {
          "internalType": "uint256",
          "name": "",
          "type": "uint256"
        }
      ],
      "payable": false,
      "stateMutability": "view",
      "type": "function"
    },
    {
      "constant": true,
      "inputs": [],
      "name": "totalVoters",
      "outputs": [
        {
          "internalType": "uint256",
          "name": "",
          "type": "uint256"
        }
      ],
      "payable": false,
      "stateMutability": "view",
      "type": "function"
    },
    {
      "constant": true,
      "inputs": [],
      "name": "votedUsers",
      "outputs": [
        {
          "internalType": "uint256",
          "name": "",
          "type": "uint256"
        }
      ],
      "payable": false,
      "stateMutability": "view",
      "type": "function"
    },
    {
      "constant": true,
      "inputs": [
        {
          "internalType": "uint256",
          "name": "",
          "type": "uint256"
        }
      ],
      "name": "voterList",
      "outputs": [
        {
          "internalType": "address",
          "name": "",
          "type": "address"
        }
      ],
      "payable": false,
      "stateMutability": "view",
      "type": "function"
    },
    {
      "constant": true,
      "inputs": [
        {
          "internalType": "address",
          "name": "",
          "type": "address"
        }
      ],
      "name": "voters",
      "outputs": [
        {
          "internalType": "bool",
          "name": "hasVoted",
          "type": "bool"
        },
        {
          "internalType": "uint256",
          "name": "vote",
          "type": "uint256"
        },
        {
          "internalType": "bool",
          "name": "isRegistered",
          "type": "bool"
        },
        {
          "internalType": "bool",
          "name": "isLoggedIn",
          "type": "bool"
        },
        {
          "internalType": "bool",
          "name": "allowedToVote",
          "type": "bool"
        }
      ],
      "payable": false,
      "stateMutability": "view",
      "type": "function"
    },
    {
      "constant": true,
      "inputs": [],
      "name": "winningCand",
      "outputs": [
        {
          "internalType": "bytes32",
          "name": "",
          "type": "bytes32"
        }
      ],
      "payable": false,
      "stateMutability": "view",
      "type": "function"
    },
    {
      "constant": false,
      "inputs": [
        {
          "internalType": "string",
          "name": "_voter",
          "type": "string"
        }
      ],
      "name": "voterAuth",
      "outputs": [
        {
          "internalType": "bool",
          "name": "",
          "type": "bool"
        }
      ],
      "payable": false,
      "stateMutability": "nonpayable",
      "type": "function"
    },
    {
      "constant": false,
      "inputs": [
        {
          "internalType": "string",
          "name": "_email",
          "type": "string"
        },
        {
          "internalType": "string",
          "name": "_password",
          "type": "string"
        }
      ],
      "name": "loginVoter",
      "outputs": [
        {
          "internalType": "bool",
          "name": "",
          "type": "bool"
        }
      ],
      "payable": false,
      "stateMutability": "nonpayable",
      "type": "function"
    },
    {
      "constant": false,
      "inputs": [
        {
          "internalType": "string",
          "name": "_email",
          "type": "string"
        },
        {
          "internalType": "string",
          "name": "_password",
          "type": "string"
        },
        {
          "internalType": "string",
          "name": "_idno",
          "type": "string"
        }
      ],
      "name": "registerVoter",
      "outputs": [
        {
          "internalType": "bool",
          "name": "",
          "type": "bool"
        }
      ],
      "payable": false,
      "stateMutability": "nonpayable",
      "type": "function"
    },
    {
      "constant": true,
      "inputs": [],
      "name": "checkIsUserLogged",
      "outputs": [
        {
          "internalType": "bool",
          "name": "",
          "type": "bool"
        }
      ],
      "payable": false,
      "stateMutability": "view",
      "type": "function"
    },
    {
      "constant": false,
      "inputs": [],
      "name": "logout",
      "outputs": [],
      "payable": false,
      "stateMutability": "nonpayable",
      "type": "function"
    },
    {
      "constant": false,
      "inputs": [],
      "name": "authorizingUsers",
      "outputs": [],
      "payable": false,
      "stateMutability": "nonpayable",
      "type": "function"
    },
    {
      "constant": false,
      "inputs": [],
      "name": "startVoting",
      "outputs": [],
      "payable": false,
      "stateMutability": "nonpayable",
      "type": "function"
    },
    {
      "constant": false,
      "inputs": [],
      "name": "stopVoting",
      "outputs": [],
      "payable": false,
      "stateMutability": "nonpayable",
      "type": "function"
    },
    {
      "constant": false,
      "inputs": [
        {
          "internalType": "bytes32",
          "name": "_name",
          "type": "bytes32"
        }
      ],
      "name": "addCandidate",
      "outputs": [],
      "payable": false,
      "stateMutability": "nonpayable",
      "type": "function"
    },
    {
      "constant": false,
      "inputs": [
        {
          "internalType": "uint256",
          "name": "_voteIndex",
          "type": "uint256"
        }
      ],
      "name": "vote",
      "outputs": [],
      "payable": false,
      "stateMutability": "nonpayable",
      "type": "function"
    }
  ],
  "bytecode": "0x608060405260006006556000600755600060085560006009556001600a60006101000a81548160ff02191690831515021790555034801561003f57600080fd5b50336000806101000a81548173ffffffffffffffffffffffffffffffffffffffff021916908373ffffffffffffffffffffffffffffffffffffffff1602179055506119fa8061008f6000396000f3fe608060405234801561001057600080fd5b50600436106101425760003560e01c806355e3e5d6116100b8578063a3ec138d1161007c578063a3ec138d146106c8578063ad12659c1461074c578063b2b956e21461076e578063e280ab3c14610790578063e8bd497b14610863578063fab2f86b1461088157610142565b806355e3e5d61461062a5780635f5300ff1461064c578063612437611461066a578063625e606b1461068c5780639f8e4815146106aa57610142565b8063230d6ed81161010a578063230d6ed8146103945780633477ee2e146103c25780633866965c14610412578063400af02a146104305780634c0a6af01461059a57806350e2e8af146105bc57610142565b80630121b93f14610147578063074395091461017557806312620e13146103765780631ec6b60a146103805780631f3c99c31461038a575b600080fd5b6101736004803603602081101561015d57600080fd5b810190808035906020019092919050505061088b565b005b61035c6004803603606081101561018b57600080fd5b81019080803590602001906401000000008111156101a857600080fd5b8201836020820111156101ba57600080fd5b803590602001918460018302840111640100000000831117156101dc57600080fd5b91908080601f016020809104026020016040519081016040528093929190818152602001838380828437600081840152601f19601f8201169050808301925050505050505091929192908035906020019064010000000081111561023f57600080fd5b82018360208201111561025157600080fd5b8035906020019184600183028401116401000000008311171561027357600080fd5b91908080601f016020809104026020016040519081016040528093929190818152602001838380828437600081840152601f19601f820116905080830192505050505050509192919290803590602001906401000000008111156102d657600080fd5b8201836020820111156102e857600080fd5b8035906020019184600183028401116401000000008311171561030a57600080fd5b91908080601f016020809104026020016040519081016040528093929190818152602001838380828437600081840152601f19601f820116905080830192505050505050509192919290505050610b7b565b604051808215151515815260200191505060405180910390f35b61037e610d55565b005b610388610de6565b005b610392610e77565b005b6103c0600480360360208110156103aa57600080fd5b8101908080359060200190929190505050610f2d565b005b6103ee600480360360208110156103d857600080fd5b8101908080359060200190929190505050611007565b60405180848152602001838152602001828152602001935050505060405180910390f35b61041a611031565b6040518082815260200191505060405180910390f35b6105806004803603604081101561044657600080fd5b810190808035906020019064010000000081111561046357600080fd5b82018360208201111561047557600080fd5b8035906020019184600183028401116401000000008311171561049757600080fd5b91908080601f016020809104026020016040519081016040528093929190818152602001838380828437600081840152601f19601f820116905080830192505050505050509192919290803590602001906401000000008111156104fa57600080fd5b82018360208201111561050c57600080fd5b8035906020019184600183028401116401000000008311171561052e57600080fd5b91908080601f016020809104026020016040519081016040528093929190818152602001838380828437600081840152601f19601f820116905080830192505050505050509192919290505050611037565b604051808215151515815260200191505060405180910390f35b6105a261135f565b604051808215151515815260200191505060405180910390f35b6105e8600480360360208110156105d257600080fd5b8101908080359060200190929190505050611372565b604051808273ffffffffffffffffffffffffffffffffffffffff1673ffffffffffffffffffffffffffffffffffffffff16815260200191505060405180910390f35b6106326113a5565b604051808215151515815260200191505060405180910390f35b6106546113b8565b6040518082815260200191505060405180910390f35b6106726113be565b604051808215151515815260200191505060405180910390f35b6106946113d1565b6040518082815260200191505060405180910390f35b6106b26113d7565b6040518082815260200191505060405180910390f35b61070a600480360360208110156106de57600080fd5b81019080803573ffffffffffffffffffffffffffffffffffffffff1690602001909291905050506113dd565b60405180861515151581526020018581526020018415151515815260200183151515158152602001821515151581526020019550505050505060405180910390f35b610754611447565b604051808215151515815260200191505060405180910390f35b61077661149e565b604051808215151515815260200191505060405180910390f35b610849600480360360208110156107a657600080fd5b81019080803590602001906401000000008111156107c357600080fd5b8201836020820111156107d557600080fd5b803590602001918460018302840111640100000000831117156107f757600080fd5b91908080601f016020809104026020016040519081016040528093929190818152602001838380828437600081840152601f19601f8201169050808301925050505050505091929192905050506114b1565b604051808215151515815260200191505060405180910390f35b61086b61164b565b6040518082815260200191505060405180910390f35b610889611651565b005b600a60029054906101000a900460ff1680156108b45750600a60039054906101000a900460ff16155b6108bd57600080fd5b600160003373ffffffffffffffffffffffffffffffffffffffff1673ffffffffffffffffffffffffffffffffffffffff16815260200190815260200160002060000160009054906101000a900460ff161561091757600080fd5b600160003373ffffffffffffffffffffffffffffffffffffffff1673ffffffffffffffffffffffffffffffffffffffff16815260200190815260200160002060020160029054906101000a900460ff1661097057600080fd5b60008111801561098257506009548111155b61098b57600080fd5b6000809050600080905082600160003373ffffffffffffffffffffffffffffffffffffffff1673ffffffffffffffffffffffffffffffffffffffff1681526020019081526020016000206001018190555060018060003373ffffffffffffffffffffffffffffffffffffffff1673ffffffffffffffffffffffffffffffffffffffff16815260200190815260200160002060000160006101000a81548160ff0219169083151502179055506001600460008581526020019081526020016000206002016000828254019250508190555060016008600082825401925050819055506000600190505b6009548111610b48578260046000838152602001908152602001600020600201541115610ad857600460008281526020019081526020016000206002015492506004600082815260200190815260200160002060010154600581905550809150610b3b565b6000801b600554118015610b0d5750808214158015610b0c5750600460008281526020019081526020016000206002015483145b5b15610b3a577f4e6f2077696e6e657200000000000000000000000000000000000000000000006005819055505b5b8080600101915050610a73565b50827ffff3c900d938d21d0990d786e819f29b8d05c1ef587b462b939609625b684b1660405160405180910390a2505050565b6000600160003373ffffffffffffffffffffffffffffffffffffffff1673ffffffffffffffffffffffffffffffffffffffff16815260200190815260200160002060020160009054906101000a900460ff1615610bd757600080fd5b60016006600082825401925050819055503360036000600654815260200190815260200160002060006101000a81548173ffffffffffffffffffffffffffffffffffffffff021916908373ffffffffffffffffffffffffffffffffffffffff16021790555060018060003373ffffffffffffffffffffffffffffffffffffffff1673ffffffffffffffffffffffffffffffffffffffff16815260200190815260200160002060020160006101000a81548160ff021916908315150217905550604051806060016040528085815260200184815260200183815250600260003373ffffffffffffffffffffffffffffffffffffffff1673ffffffffffffffffffffffffffffffffffffffff1681526020019081526020016000206000820151816000019080519060200190610d0c929190611920565b506020820151816001019080519060200190610d29929190611920565b506040820151816002019080519060200190610d46929190611920565b50905050600190509392505050565b6000809054906101000a900473ffffffffffffffffffffffffffffffffffffffff1673ffffffffffffffffffffffffffffffffffffffff163373ffffffffffffffffffffffffffffffffffffffff1614610dae57600080fd5b6001600a60016101000a81548160ff0219169083151502179055506000600a60006101000a81548160ff021916908315150217905550565b6000809054906101000a900473ffffffffffffffffffffffffffffffffffffffff1673ffffffffffffffffffffffffffffffffffffffff163373ffffffffffffffffffffffffffffffffffffffff1614610e3f57600080fd5b6001600a60026101000a81548160ff0219169083151502179055506000600a60016101000a81548160ff021916908315150217905550565b600160003373ffffffffffffffffffffffffffffffffffffffff1673ffffffffffffffffffffffffffffffffffffffff16815260200190815260200160002060020160019054906101000a900460ff16610ed057600080fd5b6000600160003373ffffffffffffffffffffffffffffffffffffffff1673ffffffffffffffffffffffffffffffffffffffff16815260200190815260200160002060020160016101000a81548160ff021916908315150217905550565b6000809054906101000a900473ffffffffffffffffffffffffffffffffffffffff1673ffffffffffffffffffffffffffffffffffffffff163373ffffffffffffffffffffffffffffffffffffffff1614610f8657600080fd5b600a60009054906101000a900460ff16610f9f57600080fd5b600160096000828254019250508190555060405180606001604052806009548152602001828152602001600081525060046000600954815260200190815260200160002060008201518160000155602082015181600101556040820151816002015590505050565b60046020528060005260406000206000915090508060000154908060010154908060020154905083565b60095481565b6000600160003373ffffffffffffffffffffffffffffffffffffffff1673ffffffffffffffffffffffffffffffffffffffff16815260200190815260200160002060020160009054906101000a900460ff1661109257600080fd5b826040516020018082805190602001908083835b602083106110c957805182526020820191506020810190506020830392506110a6565b6001836020036101000a03801982511681845116808217855250505050505090500191505060405160208183030381529060405280519060200120600260003373ffffffffffffffffffffffffffffffffffffffff1673ffffffffffffffffffffffffffffffffffffffff16815260200190815260200160002060000160405160200180828054600181600116156101000203166002900480156111a45780601f106111825761010080835404028352918201916111a4565b820191906000526020600020905b815481529060010190602001808311611190575b5050915050604051602081830303815290604052805190602001201480156112f65750816040516020018082805190602001908083835b602083106111fe57805182526020820191506020810190506020830392506111db565b6001836020036101000a03801982511681845116808217855250505050505090500191505060405160208183030381529060405280519060200120600260003373ffffffffffffffffffffffffffffffffffffffff1673ffffffffffffffffffffffffffffffffffffffff16815260200190815260200160002060010160405160200180828054600181600116156101000203166002900480156112d95780601f106112b75761010080835404028352918201916112d9565b820191906000526020600020905b8154815290600101906020018083116112c5575b505091505060405160208183030381529060405280519060200120145b6112ff57600080fd5b60018060003373ffffffffffffffffffffffffffffffffffffffff1673ffffffffffffffffffffffffffffffffffffffff16815260200190815260200160002060020160016101000a81548160ff02191690831515021790555092915050565b600a60029054906101000a900460ff1681565b60036020528060005260406000206000915054906101000a900473ffffffffffffffffffffffffffffffffffffffff1681565b600a60039054906101000a900460ff1681565b60065481565b600a60009054906101000a900460ff1681565b60055481565b60085481565b60016020528060005260406000206000915090508060000160009054906101000a900460ff16908060010154908060020160009054906101000a900460ff16908060020160019054906101000a900460ff16908060020160029054906101000a900460ff16905085565b6000600160003373ffffffffffffffffffffffffffffffffffffffff1673ffffffffffffffffffffffffffffffffffffffff16815260200190815260200160002060020160019054906101000a900460ff16905090565b600a60019054906101000a900460ff1681565b60008060009054906101000a900473ffffffffffffffffffffffffffffffffffffffff1673ffffffffffffffffffffffffffffffffffffffff163373ffffffffffffffffffffffffffffffffffffffff161461150c57600080fd5b600a60019054906101000a900460ff1661152557600080fd5b6000611530836116c7565b9050600160008273ffffffffffffffffffffffffffffffffffffffff1673ffffffffffffffffffffffffffffffffffffffff16815260200190815260200160002060020160009054906101000a900460ff16156115f35760018060008373ffffffffffffffffffffffffffffffffffffffff1673ffffffffffffffffffffffffffffffffffffffff16815260200190815260200160002060020160026101000a81548160ff02191690831515021790555060016007600082825401925050819055505b600160008273ffffffffffffffffffffffffffffffffffffffff1673ffffffffffffffffffffffffffffffffffffffff16815260200190815260200160002060020160029054906101000a900460ff16915050919050565b60075481565b6000809054906101000a900473ffffffffffffffffffffffffffffffffffffffff1673ffffffffffffffffffffffffffffffffffffffff163373ffffffffffffffffffffffffffffffffffffffff16146116aa57600080fd5b6001600a60036101000a81548160ff021916908315150217905550565b6000606082905060008090506000806000600290505b602a81101561191357610100840293508481815181106116f957fe5b602001015160f81c60f81b60f81c60ff16925084600182018151811061171b57fe5b602001015160f81c60f81b60f81c60ff16915060618373ffffffffffffffffffffffffffffffffffffffff161015801561176c575060668373ffffffffffffffffffffffffffffffffffffffff1611155b1561177c57605783039250611816565b60418373ffffffffffffffffffffffffffffffffffffffff16101580156117ba575060468373ffffffffffffffffffffffffffffffffffffffff1611155b156117ca57603783039250611815565b60308373ffffffffffffffffffffffffffffffffffffffff1610158015611808575060398373ffffffffffffffffffffffffffffffffffffffff1611155b15611814576030830392505b5b5b60618273ffffffffffffffffffffffffffffffffffffffff1610158015611854575060668273ffffffffffffffffffffffffffffffffffffffff1611155b15611864576057820391506118fe565b60418273ffffffffffffffffffffffffffffffffffffffff16101580156118a2575060468273ffffffffffffffffffffffffffffffffffffffff1611155b156118b2576037820391506118fd565b60308273ffffffffffffffffffffffffffffffffffffffff16101580156118f0575060398273ffffffffffffffffffffffffffffffffffffffff1611155b156118fc576030820391505b5b5b816010840201840193506002810190506116dd565b5082945050505050919050565b828054600181600116156101000203166002900490600052602060002090601f016020900481019282601f1061196157805160ff191683800117855561198f565b8280016001018555821561198f579182015b8281111561198e578251825591602001919060010190611973565b5b50905061199c91906119a0565b5090565b6119c291905b808211156119be5760008160009055506001016119a6565b5090565b9056fea265627a7a72315820479e9d8b6b92455a537f3fe80596211a27373774b5ab2eb527377dac6f29d83264736f6c63430005100032",
  "source": "// File: contracts/eVote.sol\r\n// SPDX-License-Identifier: MIT\r\npragma solidity ^0.5.16;\r\n\r\ncontract eVote {\r\n    struct Voter {\r\n        bool hasVoted;\r\n        uint vote;\r\n\t\tbool isRegistered;\r\n\t\tbool isLoggedIn;\r\n\t\tbool allowedToVote;\r\n    }\r\n\tstruct VoterDetails{\r\n\t\tstring email;\r\n\t\tstring pass;\r\n\t\tstring identityno;\r\n\t\r\n\t}\r\n    struct Candidate {\r\n        uint id;\r\n        bytes32 name;\r\n        uint totalVotes;\r\n    }\r\n\t\r\n\taddress chairman;\r\n\t\r\n\r\n    mapping(address => Voter) public voters;\r\n\tmapping(address => VoterDetails) voterdetails; \r\n\tmapping(uint => address) public voterList; //addresses of registered voters\r\n    mapping(uint => Candidate) public candidates;\r\n    bytes32 public winningCand;\r\n\t\r\n    uint public totalVoters = 0;\r\n\tuint public authorizedVoters = 0;\r\n\tuint public votedUsers = 0;\r\n    uint public totalCandidates = 0;\r\n\t\r\n\tbool public registerCands = true;\r\n\tbool public authorizeUsers;\r\n\tbool public startVote;\r\n\tbool public finishedVote;\r\n\t\r\n\tconstructor() public {\r\n        chairman = msg.sender;\r\n    }\r\n\r\n\t\r\n\tfunction voterAuth(string memory _voter) public returns (bool) {\r\n\t\trequire(msg.sender == chairman);\r\n\t\trequire(authorizeUsers);\r\n\t\taddress _voter_addr = parseAddr(_voter);\r\n\t\tif(voters[_voter_addr].isRegistered){\r\n\t\t\tvoters[_voter_addr].allowedToVote = true;\r\n\t\t\tauthorizedVoters += 1;\r\n\t\t}\r\n\t\treturn voters[_voter_addr].allowedToVote;\r\n    }\r\n\t\r\n\t//converts string memory address to solidity type address\r\n\tfunction parseAddr(string memory _a) internal pure returns (address _parsedAddress) {\r\n\t\tbytes memory tmp = bytes(_a);\r\n\t\tuint160 iaddr = 0;\r\n\t\tuint160 b1;\r\n\t\tuint160 b2;\r\n\t\tfor (uint i = 2; i < 2 + 2 * 20; i += 2) {\r\n\t\t\tiaddr *= 256;\r\n\t\t\tb1 = uint160(uint8(tmp[i]));\r\n\t\t\tb2 = uint160(uint8(tmp[i + 1]));\r\n\t\t\tif ((b1 >= 97) && (b1 <= 102)) {\r\n\t\t\t\tb1 -= 87;\r\n\t\t\t} else if ((b1 >= 65) && (b1 <= 70)) {\r\n\t\t\t\tb1 -= 55;\r\n\t\t\t} else if ((b1 >= 48) && (b1 <= 57)) {\r\n\t\t\t\tb1 -= 48;\r\n\t\t\t}\r\n\t\t\tif ((b2 >= 97) && (b2 <= 102)) {\r\n\t\t\t\tb2 -= 87;\r\n\t\t\t} else if ((b2 >= 65) && (b2 <= 70)) {\r\n\t\t\t\tb2 -= 55;\r\n\t\t\t} else if ((b2 >= 48) && (b2 <= 57)) {\r\n\t\t\t\tb2 -= 48;\r\n\t\t\t}\r\n\t\t\tiaddr += (b1 * 16 + b2);\r\n\t\t}\r\n\t\treturn address(iaddr);\r\n\t}\r\n\t\r\n\t\r\n\tfunction loginVoter(string memory _email, string memory _password) public returns (bool)\r\n    {\r\n\t\trequire(voters[msg.sender].isRegistered);\r\n        require (\r\n\t\t\tkeccak256(abi.encodePacked(voterdetails[msg.sender].email)) ==\r\n            keccak256(abi.encodePacked(_email))  &&\r\n            keccak256(abi.encodePacked(voterdetails[msg.sender].pass)) ==\r\n            keccak256(abi.encodePacked(_password))\r\n\t\t\t\r\n        );\r\n\t\t\r\n        voters[msg.sender].isLoggedIn = true;\r\n    }\r\n\t\r\n\tfunction registerVoter(string memory _email,string memory _password,string memory _idno) public returns (bool) {\r\n\t\trequire(!voters[msg.sender].isRegistered);\r\n\t\ttotalVoters+= 1;\r\n\t\tvoterList[totalVoters] = msg.sender;\r\n\t\tvoters[msg.sender].isRegistered = true;\r\n\t\tvoterdetails[msg.sender] = VoterDetails(_email,_password,_idno);\r\n        return true;\r\n    }\r\n\t\r\n\tfunction checkIsUserLogged() public view returns (bool) {\r\n        return (voters[msg.sender].isLoggedIn);\r\n    }\r\n\t\r\n\tfunction logout() public {\r\n\t\trequire(voters[msg.sender].isLoggedIn);\r\n        voters[msg.sender].isLoggedIn = false;\r\n    }\r\n\t\r\n\tfunction authorizingUsers() public {\r\n\t\trequire(msg.sender == chairman);\r\n\t\tauthorizeUsers = true;\r\n\t\tregisterCands = false;\r\n\t}\r\n\t\r\n\tfunction startVoting() public {\r\n\t\trequire(msg.sender == chairman);\r\n\t\tstartVote = true;\r\n\t\tauthorizeUsers = false;\r\n\t}\r\n\t\r\n\tfunction stopVoting() public {\r\n\t\trequire(msg.sender == chairman);\r\n\t\tfinishedVote = true;\r\n\t}\r\n\t\r\n\tevent votedEvent (\r\n        uint indexed _voteIndex\r\n    );\r\n    \r\n    function addCandidate(bytes32 _name) public {\r\n\t\trequire(msg.sender == chairman);\r\n\t\trequire(registerCands);\r\n        totalCandidates+= 1;\r\n        candidates[totalCandidates] = Candidate(totalCandidates,_name, 0);\r\n    }\r\n\t\r\n\r\n    function vote(uint _voteIndex) public {\r\n\t\trequire(startVote && !finishedVote);\r\n\t\trequire(!voters[msg.sender].hasVoted);\r\n\t\trequire(voters[msg.sender].allowedToVote);\r\n\t\trequire(_voteIndex > 0 && _voteIndex <= totalCandidates);\r\n\r\n\t\tuint winningVoteCount = 0;\r\n\t\tuint winningIndex = 0;\t\t\r\n\t\t\r\n        voters[msg.sender].vote = _voteIndex;\r\n        voters[msg.sender].hasVoted = true;\r\n\t\t\r\n        \r\n        candidates[_voteIndex].totalVotes += 1;\r\n\t\tvotedUsers += 1;\r\n\t\tfor (uint p = 1; p <= totalCandidates; p++) {\r\n            if (candidates[p].totalVotes > winningVoteCount) {\r\n                winningVoteCount = candidates[p].totalVotes;\r\n                winningCand = candidates[p].name;\r\n\t\t\t\twinningIndex = p;\r\n            } else if(winningCand>0 && (winningIndex!=p && winningVoteCount==candidates[p].totalVotes)){\r\n\t\t\t\twinningCand = \"No winner\";\r\n\t\t\t}\r\n        }\r\n\t\temit votedEvent(_voteIndex);\r\n    }\r\n\r\n}\r\n",
  "sourcePath": "C:\\Users\\cemal\\OneDrive\\Sndlr\\GitHub\\Thesis\\contracts\\eVote.sol",
  "compiler": {
    "name": "solc",
    "version": "0.5.16+commit.9c3226ce.Emscripten.clang"
  },
  "schemaVersion": "3.4.3",
  "updatedAt": "2021-12-06T05:20:53.978Z",
  "networkType": "ethereum",
  "devdoc": {
    "methods": {}
  },
  "userdoc": {
    "methods": {}
  }
}